{
  "_format": "hh-sol-artifact-1",
  "contractName": "MyNFT",
  "sourceName": "contracts/NFTFactory.sol",
  "abi": [
    {
      "inputs": [
        {
          "internalType": "string",
          "name": "_name",
          "type": "string"
        },
        {
          "internalType": "string",
          "name": "_symbol",
          "type": "string"
        }
      ],
      "stateMutability": "nonpayable",
      "type": "constructor"
    },
    {
      "inputs": [
        {
          "internalType": "address",
          "name": "sender",
          "type": "address"
        },
        {
          "internalType": "uint256",
          "name": "tokenId",
          "type": "uint256"
        },
        {
          "internalType": "address",
          "name": "owner",
          "type": "address"
        }
      ],
      "name": "ERC721IncorrectOwner",
      "type": "error"
    },
    {
      "inputs": [
        {
          "internalType": "address",
          "name": "operator",
          "type": "address"
        },
        {
          "internalType": "uint256",
          "name": "tokenId",
          "type": "uint256"
        }
      ],
      "name": "ERC721InsufficientApproval",
      "type": "error"
    },
    {
      "inputs": [
        {
          "internalType": "address",
          "name": "approver",
          "type": "address"
        }
      ],
      "name": "ERC721InvalidApprover",
      "type": "error"
    },
    {
      "inputs": [
        {
          "internalType": "address",
          "name": "operator",
          "type": "address"
        }
      ],
      "name": "ERC721InvalidOperator",
      "type": "error"
    },
    {
      "inputs": [
        {
          "internalType": "address",
          "name": "owner",
          "type": "address"
        }
      ],
      "name": "ERC721InvalidOwner",
      "type": "error"
    },
    {
      "inputs": [
        {
          "internalType": "address",
          "name": "receiver",
          "type": "address"
        }
      ],
      "name": "ERC721InvalidReceiver",
      "type": "error"
    },
    {
      "inputs": [
        {
          "internalType": "address",
          "name": "sender",
          "type": "address"
        }
      ],
      "name": "ERC721InvalidSender",
      "type": "error"
    },
    {
      "inputs": [
        {
          "internalType": "uint256",
          "name": "tokenId",
          "type": "uint256"
        }
      ],
      "name": "ERC721NonexistentToken",
      "type": "error"
    },
    {
      "anonymous": false,
      "inputs": [
        {
          "indexed": true,
          "internalType": "address",
          "name": "owner",
          "type": "address"
        },
        {
          "indexed": true,
          "internalType": "address",
          "name": "approved",
          "type": "address"
        },
        {
          "indexed": true,
          "internalType": "uint256",
          "name": "tokenId",
          "type": "uint256"
        }
      ],
      "name": "Approval",
      "type": "event"
    },
    {
      "anonymous": false,
      "inputs": [
        {
          "indexed": true,
          "internalType": "address",
          "name": "owner",
          "type": "address"
        },
        {
          "indexed": true,
          "internalType": "address",
          "name": "operator",
          "type": "address"
        },
        {
          "indexed": false,
          "internalType": "bool",
          "name": "approved",
          "type": "bool"
        }
      ],
      "name": "ApprovalForAll",
      "type": "event"
    },
    {
      "anonymous": false,
      "inputs": [
        {
          "indexed": false,
          "internalType": "uint256",
          "name": "_fromTokenId",
          "type": "uint256"
        },
        {
          "indexed": false,
          "internalType": "uint256",
          "name": "_toTokenId",
          "type": "uint256"
        }
      ],
      "name": "BatchMetadataUpdate",
      "type": "event"
    },
    {
      "anonymous": false,
      "inputs": [
        {
          "indexed": false,
          "internalType": "uint256",
          "name": "_tokenId",
          "type": "uint256"
        }
      ],
      "name": "MetadataUpdate",
      "type": "event"
    },
    {
      "anonymous": false,
      "inputs": [
        {
          "indexed": true,
          "internalType": "address",
          "name": "from",
          "type": "address"
        },
        {
          "indexed": true,
          "internalType": "address",
          "name": "to",
          "type": "address"
        },
        {
          "indexed": true,
          "internalType": "uint256",
          "name": "tokenId",
          "type": "uint256"
        }
      ],
      "name": "Transfer",
      "type": "event"
    },
    {
      "inputs": [
        {
          "internalType": "address",
          "name": "to",
          "type": "address"
        },
        {
          "internalType": "uint256",
          "name": "tokenId",
          "type": "uint256"
        }
      ],
      "name": "approve",
      "outputs": [],
      "stateMutability": "nonpayable",
      "type": "function"
    },
    {
      "inputs": [
        {
          "internalType": "address",
          "name": "owner",
          "type": "address"
        }
      ],
      "name": "balanceOf",
      "outputs": [
        {
          "internalType": "uint256",
          "name": "",
          "type": "uint256"
        }
      ],
      "stateMutability": "view",
      "type": "function"
    },
    {
      "inputs": [
        {
          "internalType": "uint256",
          "name": "tokenId",
          "type": "uint256"
        }
      ],
      "name": "getApproved",
      "outputs": [
        {
          "internalType": "address",
          "name": "",
          "type": "address"
        }
      ],
      "stateMutability": "view",
      "type": "function"
    },
    {
      "inputs": [],
      "name": "getCreator",
      "outputs": [
        {
          "internalType": "address",
          "name": "",
          "type": "address"
        }
      ],
      "stateMutability": "view",
      "type": "function"
    },
    {
      "inputs": [],
      "name": "getTokenIdCounter",
      "outputs": [
        {
          "internalType": "uint256",
          "name": "",
          "type": "uint256"
        }
      ],
      "stateMutability": "view",
      "type": "function"
    },
    {
      "inputs": [
        {
          "internalType": "address",
          "name": "owner",
          "type": "address"
        },
        {
          "internalType": "address",
          "name": "operator",
          "type": "address"
        }
      ],
      "name": "isApprovedForAll",
      "outputs": [
        {
          "internalType": "bool",
          "name": "",
          "type": "bool"
        }
      ],
      "stateMutability": "view",
      "type": "function"
    },
    {
      "inputs": [
        {
          "internalType": "address",
          "name": "to",
          "type": "address"
        }
      ],
      "name": "mint",
      "outputs": [],
      "stateMutability": "nonpayable",
      "type": "function"
    },
    {
      "inputs": [],
      "name": "name",
      "outputs": [
        {
          "internalType": "string",
          "name": "",
          "type": "string"
        }
      ],
      "stateMutability": "view",
      "type": "function"
    },
    {
      "inputs": [
        {
          "internalType": "uint256",
          "name": "tokenId",
          "type": "uint256"
        }
      ],
      "name": "ownerOf",
      "outputs": [
        {
          "internalType": "address",
          "name": "",
          "type": "address"
        }
      ],
      "stateMutability": "view",
      "type": "function"
    },
    {
      "inputs": [
        {
          "internalType": "address",
          "name": "from",
          "type": "address"
        },
        {
          "internalType": "address",
          "name": "to",
          "type": "address"
        },
        {
          "internalType": "uint256",
          "name": "tokenId",
          "type": "uint256"
        }
      ],
      "name": "safeTransferFrom",
      "outputs": [],
      "stateMutability": "nonpayable",
      "type": "function"
    },
    {
      "inputs": [
        {
          "internalType": "address",
          "name": "from",
          "type": "address"
        },
        {
          "internalType": "address",
          "name": "to",
          "type": "address"
        },
        {
          "internalType": "uint256",
          "name": "tokenId",
          "type": "uint256"
        },
        {
          "internalType": "bytes",
          "name": "data",
          "type": "bytes"
        }
      ],
      "name": "safeTransferFrom",
      "outputs": [],
      "stateMutability": "nonpayable",
      "type": "function"
    },
    {
      "inputs": [
        {
          "internalType": "address",
          "name": "operator",
          "type": "address"
        },
        {
          "internalType": "bool",
          "name": "approved",
          "type": "bool"
        }
      ],
      "name": "setApprovalForAll",
      "outputs": [],
      "stateMutability": "nonpayable",
      "type": "function"
    },
    {
      "inputs": [
        {
          "internalType": "uint256",
          "name": "tokenId",
          "type": "uint256"
        },
        {
          "internalType": "string",
          "name": "_tokenURI",
          "type": "string"
        }
      ],
      "name": "setTokenURI",
      "outputs": [],
      "stateMutability": "nonpayable",
      "type": "function"
    },
    {
      "inputs": [
        {
          "internalType": "bytes4",
          "name": "interfaceId",
          "type": "bytes4"
        }
      ],
      "name": "supportsInterface",
      "outputs": [
        {
          "internalType": "bool",
          "name": "",
          "type": "bool"
        }
      ],
      "stateMutability": "view",
      "type": "function"
    },
    {
      "inputs": [],
      "name": "symbol",
      "outputs": [
        {
          "internalType": "string",
          "name": "",
          "type": "string"
        }
      ],
      "stateMutability": "view",
      "type": "function"
    },
    {
      "inputs": [
        {
          "internalType": "uint256",
          "name": "tokenId",
          "type": "uint256"
        }
      ],
      "name": "tokenURI",
      "outputs": [
        {
          "internalType": "string",
          "name": "",
          "type": "string"
        }
      ],
      "stateMutability": "view",
      "type": "function"
    },
    {
      "inputs": [
        {
          "internalType": "address",
          "name": "from",
          "type": "address"
        },
        {
          "internalType": "address",
          "name": "to",
          "type": "address"
        },
        {
          "internalType": "uint256",
          "name": "tokenId",
          "type": "uint256"
        }
      ],
      "name": "transferFrom",
      "outputs": [],
      "stateMutability": "nonpayable",
      "type": "function"
    }
  ],
  "bytecode": "0x608060405260006007553480156200001657600080fd5b50604051620029593803806200295983398181016040528101906200003c919062000308565b8181816000908051906020019062000056929190620000bb565b5080600190805190602001906200006f929190620000bb565b50505033600860006101000a81548173ffffffffffffffffffffffffffffffffffffffff021916908373ffffffffffffffffffffffffffffffffffffffff1602179055505050620003f2565b828054620000c990620003bc565b90600052602060002090601f016020900481019282620000ed576000855562000139565b82601f106200010857805160ff191683800117855562000139565b8280016001018555821562000139579182015b82811115620001385782518255916020019190600101906200011b565b5b5090506200014891906200014c565b5090565b5b80821115620001675760008160009055506001016200014d565b5090565b6000604051905090565b600080fd5b600080fd5b600080fd5b600080fd5b6000601f19601f8301169050919050565b7f4e487b7100000000000000000000000000000000000000000000000000000000600052604160045260246000fd5b620001d48262000189565b810181811067ffffffffffffffff82111715620001f657620001f56200019a565b5b80604052505050565b60006200020b6200016b565b9050620002198282620001c9565b919050565b600067ffffffffffffffff8211156200023c576200023b6200019a565b5b620002478262000189565b9050602081019050919050565b60005b838110156200027457808201518184015260208101905062000257565b8381111562000284576000848401525b50505050565b6000620002a16200029b846200021e565b620001ff565b905082815260208101848484011115620002c057620002bf62000184565b5b620002cd84828562000254565b509392505050565b600082601f830112620002ed57620002ec6200017f565b5b8151620002ff8482602086016200028a565b91505092915050565b6000806040838503121562000322576200032162000175565b5b600083015167ffffffffffffffff8111156200034357620003426200017a565b5b6200035185828601620002d5565b925050602083015167ffffffffffffffff8111156200037557620003746200017a565b5b6200038385828601620002d5565b9150509250929050565b7f4e487b7100000000000000000000000000000000000000000000000000000000600052602260045260246000fd5b60006002820490506001821680620003d557607f821691505b60208210811415620003ec57620003eb6200038d565b5b50919050565b61255780620004026000396000f3fe608060405234801561001057600080fd5b506004361061010b5760003560e01c80636352211e116100a2578063a22cb46511610071578063a22cb465146102b6578063b88d4fde146102d2578063c87b56dd146102ee578063dbfd4b981461031e578063e985e9c51461033c5761010b565b80636352211e1461021c5780636a6278421461024c57806370a082311461026857806395d89b41146102985761010b565b80630ee2cb10116100de5780630ee2cb10146101aa578063162094c4146101c857806323b872dd146101e457806342842e0e146102005761010b565b806301ffc9a71461011057806306fdde0314610140578063081812fc1461015e578063095ea7b31461018e575b600080fd5b61012a60048036038101906101259190611bb6565b61036c565b6040516101379190611bfe565b60405180910390f35b6101486103cd565b6040516101559190611cb2565b60405180910390f35b61017860048036038101906101739190611d0a565b61045f565b6040516101859190611d78565b60405180910390f35b6101a860048036038101906101a39190611dbf565b61047a565b005b6101b2610490565b6040516101bf9190611d78565b60405180910390f35b6101e260048036038101906101dd9190611f34565b6104ba565b005b6101fe60048036038101906101f99190611f90565b6104c8565b005b61021a60048036038101906102159190611f90565b6105cb565b005b61023660048036038101906102319190611d0a565b6105eb565b6040516102439190611d78565b60405180910390f35b61026660048036038101906102619190611fe3565b610674565b005b610282600480360381019061027d9190611fe3565b61072b565b60405161028f919061201f565b60405180910390f35b6102a06107e6565b6040516102ad9190611cb2565b60405180910390f35b6102d060048036038101906102cb9190612066565b610878565b005b6102ec60048036038101906102e79190612147565b61088e565b005b61030860048036038101906103039190611d0a565b6108ab565b6040516103159190611cb2565b60405180910390f35b6103266109be565b604051610333919061201f565b60405180910390f35b610356600480360381019061035191906121ca565b6109c8565b6040516103639190611bfe565b60405180910390f35b6000634906490660e01b7bffffffffffffffffffffffffffffffffffffffffffffffffffffffff1916827bffffffffffffffffffffffffffffffffffffffffffffffffffffffff191614806103c657506103c582610a5c565b5b9050919050565b6060600080546103dc90612239565b80601f016020809104026020016040519081016040528092919081815260200182805461040890612239565b80156104555780601f1061042a57610100808354040283529160200191610455565b820191906000526020600020905b81548152906001019060200180831161043857829003601f168201915b5050505050905090565b600061046a82610b3e565b61047382610bbb565b9050919050565b61048c8282610487610bf8565b610c00565b5050565b6000600860009054906101000a900473ffffffffffffffffffffffffffffffffffffffff16905090565b6104c48282610c12565b5050565b600073ffffffffffffffffffffffffffffffffffffffff168273ffffffffffffffffffffffffffffffffffffffff16141561053b5760006040517f64a0ae920000000000000000000000000000000000000000000000000000000081526004016105329190611d78565b60405180910390fd5b600061054f838361054a610bf8565b610cef565b90508373ffffffffffffffffffffffffffffffffffffffff168173ffffffffffffffffffffffffffffffffffffffff16146105c5578382826040517f64283d7b0000000000000000000000000000000000000000000000000000000081526004016105bc9392919061226b565b60405180910390fd5b50505050565b6105e68383836040518060200160405280600081525061088e565b505050565b6000806105f783610d8b565b9050600073ffffffffffffffffffffffffffffffffffffffff168173ffffffffffffffffffffffffffffffffffffffff16141561066b57826040517f7e273289000000000000000000000000000000000000000000000000000000008152600401610662919061201f565b60405180910390fd5b80915050919050565b600860009054906101000a900473ffffffffffffffffffffffffffffffffffffffff1673ffffffffffffffffffffffffffffffffffffffff163373ffffffffffffffffffffffffffffffffffffffff1614610704576040517f08c379a00000000000000000000000000000000000000000000000000000000081526004016106fb906122ee565b60405180910390fd5b61071081600754610dc8565b600760008154809291906107239061233d565b919050555050565b60008073ffffffffffffffffffffffffffffffffffffffff168273ffffffffffffffffffffffffffffffffffffffff16141561079f5760006040517f89c62b640000000000000000000000000000000000000000000000000000000081526004016107969190611d78565b60405180910390fd5b600360008373ffffffffffffffffffffffffffffffffffffffff1673ffffffffffffffffffffffffffffffffffffffff168152602001908152602001600020549050919050565b6060600180546107f590612239565b80601f016020809104026020016040519081016040528092919081815260200182805461082190612239565b801561086e5780601f106108435761010080835404028352916020019161086e565b820191906000526020600020905b81548152906001019060200180831161085157829003601f168201915b5050505050905090565b61088a610883610bf8565b8383610ec2565b5050565b6108998484846104c8565b6108a584848484611032565b50505050565b60606108b682610b3e565b60006006600084815260200190815260200160002080546108d690612239565b80601f016020809104026020016040519081016040528092919081815260200182805461090290612239565b801561094f5780601f106109245761010080835404028352916020019161094f565b820191906000526020600020905b81548152906001019060200180831161093257829003601f168201915b5050505050905060006109606111ea565b90506000815114156109765781925050506109b9565b6000825111156109ab5780826040516020016109939291906123c2565b604051602081830303815290604052925050506109b9565b6109b484611201565b925050505b919050565b6000600754905090565b6000600560008473ffffffffffffffffffffffffffffffffffffffff1673ffffffffffffffffffffffffffffffffffffffff16815260200190815260200160002060008373ffffffffffffffffffffffffffffffffffffffff1673ffffffffffffffffffffffffffffffffffffffff16815260200190815260200160002060009054906101000a900460ff16905092915050565b60007f80ac58cd000000000000000000000000000000000000000000000000000000007bffffffffffffffffffffffffffffffffffffffffffffffffffffffff1916827bffffffffffffffffffffffffffffffffffffffffffffffffffffffff19161480610b2757507f5b5e139f000000000000000000000000000000000000000000000000000000007bffffffffffffffffffffffffffffffffffffffffffffffffffffffff1916827bffffffffffffffffffffffffffffffffffffffffffffffffffffffff1916145b80610b375750610b368261126d565b5b9050919050565b600073ffffffffffffffffffffffffffffffffffffffff16610b5f82610d8b565b73ffffffffffffffffffffffffffffffffffffffff161415610bb857806040517f7e273289000000000000000000000000000000000000000000000000000000008152600401610baf919061201f565b60405180910390fd5b50565b60006004600083815260200190815260200160002060009054906101000a900473ffffffffffffffffffffffffffffffffffffffff169050919050565b600033905090565b610c0d83838360016112d7565b505050565b600073ffffffffffffffffffffffffffffffffffffffff16610c3383610d8b565b73ffffffffffffffffffffffffffffffffffffffff161415610c8c57816040517f7e273289000000000000000000000000000000000000000000000000000000008152600401610c83919061201f565b60405180910390fd5b80600660008481526020019081526020016000209080519060200190610cb3929190611a67565b507ff8e1a15aba9398e019f0b49df1a4fde98ee17ae345cb5f6b5e2c27f5033e8ce782604051610ce3919061201f565b60405180910390a15050565b600080610cfd85858561149c565b9050600073ffffffffffffffffffffffffffffffffffffffff168573ffffffffffffffffffffffffffffffffffffffff16148015610d5b57506000600660008681526020019081526020016000208054610d5690612239565b905014155b15610d8057600660008581526020019081526020016000206000610d7f9190611aed565b5b809150509392505050565b60006002600083815260200190815260200160002060009054906101000a900473ffffffffffffffffffffffffffffffffffffffff169050919050565b600073ffffffffffffffffffffffffffffffffffffffff168273ffffffffffffffffffffffffffffffffffffffff161415610e3b5760006040517f64a0ae92000000000000000000000000000000000000000000000000000000008152600401610e329190611d78565b60405180910390fd5b6000610e4983836000610cef565b9050600073ffffffffffffffffffffffffffffffffffffffff168173ffffffffffffffffffffffffffffffffffffffff1614610ebd5760006040517f73c6ac6e000000000000000000000000000000000000000000000000000000008152600401610eb49190611d78565b60405180910390fd5b505050565b600073ffffffffffffffffffffffffffffffffffffffff168273ffffffffffffffffffffffffffffffffffffffff161415610f3457816040517f5b08ba18000000000000000000000000000000000000000000000000000000008152600401610f2b9190611d78565b60405180910390fd5b80600560008573ffffffffffffffffffffffffffffffffffffffff1673ffffffffffffffffffffffffffffffffffffffff16815260200190815260200160002060008473ffffffffffffffffffffffffffffffffffffffff1673ffffffffffffffffffffffffffffffffffffffff16815260200190815260200160002060006101000a81548160ff0219169083151502179055508173ffffffffffffffffffffffffffffffffffffffff168373ffffffffffffffffffffffffffffffffffffffff167f17307eab39ab6107e8899845ad3d59bd9653f200f220920489ca2b5937696c31836040516110259190611bfe565b60405180910390a3505050565b60008373ffffffffffffffffffffffffffffffffffffffff163b11156111e4578273ffffffffffffffffffffffffffffffffffffffff1663150b7a02611076610bf8565b8685856040518563ffffffff1660e01b8152600401611098949392919061243b565b6020604051808303816000875af19250505080156110d457506040513d601f19601f820116820180604052508101906110d1919061249c565b60015b611159573d8060008114611104576040519150601f19603f3d011682016040523d82523d6000602084013e611109565b606091505b5060008151141561115157836040517f64a0ae920000000000000000000000000000000000000000000000000000000081526004016111489190611d78565b60405180910390fd5b805181602001fd5b63150b7a0260e01b7bffffffffffffffffffffffffffffffffffffffffffffffffffffffff1916817bffffffffffffffffffffffffffffffffffffffffffffffffffffffff1916146111e257836040517f64a0ae920000000000000000000000000000000000000000000000000000000081526004016111d99190611d78565b60405180910390fd5b505b50505050565b606060405180602001604052806000815250905090565b606061120c82610b3e565b60006112166111ea565b9050600081511115611254578061122c846116b6565b60405160200161123d9291906123c2565b604051602081830303815290604052915050611268565b604051806020016040528060008152509150505b919050565b60007f01ffc9a7000000000000000000000000000000000000000000000000000000007bffffffffffffffffffffffffffffffffffffffffffffffffffffffff1916827bffffffffffffffffffffffffffffffffffffffffffffffffffffffff1916149050919050565b80806113105750600073ffffffffffffffffffffffffffffffffffffffff168273ffffffffffffffffffffffffffffffffffffffff1614155b15611444576000611320846105eb565b9050600073ffffffffffffffffffffffffffffffffffffffff168373ffffffffffffffffffffffffffffffffffffffff161415801561138b57508273ffffffffffffffffffffffffffffffffffffffff168173ffffffffffffffffffffffffffffffffffffffff1614155b801561139e575061139c81846109c8565b155b156113e057826040517fa9fbf51f0000000000000000000000000000000000000000000000000000000081526004016113d79190611d78565b60405180910390fd5b811561144257838573ffffffffffffffffffffffffffffffffffffffff168273ffffffffffffffffffffffffffffffffffffffff167f8c5be1e5ebec7d5bd14f71427d1e84f3dd0314c0f7b2291e5b200ac8c7c3b92560405160405180910390a45b505b836004600085815260200190815260200160002060006101000a81548173ffffffffffffffffffffffffffffffffffffffff021916908373ffffffffffffffffffffffffffffffffffffffff16021790555050505050565b6000806114a884610d8b565b9050600073ffffffffffffffffffffffffffffffffffffffff168373ffffffffffffffffffffffffffffffffffffffff16146114ea576114e981848661178e565b5b600073ffffffffffffffffffffffffffffffffffffffff168173ffffffffffffffffffffffffffffffffffffffff161461157b5761152c6000856000806112d7565b6001600360008373ffffffffffffffffffffffffffffffffffffffff1673ffffffffffffffffffffffffffffffffffffffff168152602001908152602001600020600082825403925050819055505b600073ffffffffffffffffffffffffffffffffffffffff168573ffffffffffffffffffffffffffffffffffffffff16146115fe576001600360008773ffffffffffffffffffffffffffffffffffffffff1673ffffffffffffffffffffffffffffffffffffffff168152602001908152602001600020600082825401925050819055505b846002600086815260200190815260200160002060006101000a81548173ffffffffffffffffffffffffffffffffffffffff021916908373ffffffffffffffffffffffffffffffffffffffff160217905550838573ffffffffffffffffffffffffffffffffffffffff168273ffffffffffffffffffffffffffffffffffffffff167fddf252ad1be2c89b69c2b068fc378daa952ba7f163c4a11628f55a4df523b3ef60405160405180910390a4809150509392505050565b6060600060016116c584611853565b01905060008167ffffffffffffffff8111156116e4576116e3611e09565b5b6040519080825280601f01601f1916602001820160405280156117165781602001600182028036833780820191505090505b509050600082602001820190505b600115611783578080600190039150507f3031323334353637383961626364656600000000000000000000000000000000600a86061a8153600a858161176d5761176c6124c9565b5b049450600085141561177e57611783565b611724565b819350505050919050565b6117998383836119a6565b61184e57600073ffffffffffffffffffffffffffffffffffffffff168373ffffffffffffffffffffffffffffffffffffffff16141561180f57806040517f7e273289000000000000000000000000000000000000000000000000000000008152600401611806919061201f565b60405180910390fd5b81816040517f177e802f0000000000000000000000000000000000000000000000000000000081526004016118459291906124f8565b60405180910390fd5b505050565b600080600090507a184f03e93ff9f4daa797ed6e38ed64bf6a1f01000000000000000083106118b1577a184f03e93ff9f4daa797ed6e38ed64bf6a1f01000000000000000083816118a7576118a66124c9565b5b0492506040810190505b6d04ee2d6d415b85acef810000000083106118ee576d04ee2d6d415b85acef810000000083816118e4576118e36124c9565b5b0492506020810190505b662386f26fc10000831061191d57662386f26fc100008381611913576119126124c9565b5b0492506010810190505b6305f5e1008310611946576305f5e100838161193c5761193b6124c9565b5b0492506008810190505b612710831061196b576127108381611961576119606124c9565b5b0492506004810190505b6064831061198e5760648381611984576119836124c9565b5b0492506002810190505b600a831061199d576001810190505b80915050919050565b60008073ffffffffffffffffffffffffffffffffffffffff168373ffffffffffffffffffffffffffffffffffffffff1614158015611a5e57508273ffffffffffffffffffffffffffffffffffffffff168473ffffffffffffffffffffffffffffffffffffffff161480611a1f5750611a1e84846109c8565b5b80611a5d57508273ffffffffffffffffffffffffffffffffffffffff16611a4583610bbb565b73ffffffffffffffffffffffffffffffffffffffff16145b5b90509392505050565b828054611a7390612239565b90600052602060002090601f016020900481019282611a955760008555611adc565b82601f10611aae57805160ff1916838001178555611adc565b82800160010185558215611adc579182015b82811115611adb578251825591602001919060010190611ac0565b5b509050611ae99190611b2d565b5090565b508054611af990612239565b6000825580601f10611b0b5750611b2a565b601f016020900490600052602060002090810190611b299190611b2d565b5b50565b5b80821115611b46576000816000905550600101611b2e565b5090565b6000604051905090565b600080fd5b600080fd5b60007fffffffff0000000000000000000000000000000000000000000000000000000082169050919050565b611b9381611b5e565b8114611b9e57600080fd5b50565b600081359050611bb081611b8a565b92915050565b600060208284031215611bcc57611bcb611b54565b5b6000611bda84828501611ba1565b91505092915050565b60008115159050919050565b611bf881611be3565b82525050565b6000602082019050611c136000830184611bef565b92915050565b600081519050919050565b600082825260208201905092915050565b60005b83811015611c53578082015181840152602081019050611c38565b83811115611c62576000848401525b50505050565b6000601f19601f8301169050919050565b6000611c8482611c19565b611c8e8185611c24565b9350611c9e818560208601611c35565b611ca781611c68565b840191505092915050565b60006020820190508181036000830152611ccc8184611c79565b905092915050565b6000819050919050565b611ce781611cd4565b8114611cf257600080fd5b50565b600081359050611d0481611cde565b92915050565b600060208284031215611d2057611d1f611b54565b5b6000611d2e84828501611cf5565b91505092915050565b600073ffffffffffffffffffffffffffffffffffffffff82169050919050565b6000611d6282611d37565b9050919050565b611d7281611d57565b82525050565b6000602082019050611d8d6000830184611d69565b92915050565b611d9c81611d57565b8114611da757600080fd5b50565b600081359050611db981611d93565b92915050565b60008060408385031215611dd657611dd5611b54565b5b6000611de485828601611daa565b9250506020611df585828601611cf5565b9150509250929050565b600080fd5b600080fd5b7f4e487b7100000000000000000000000000000000000000000000000000000000600052604160045260246000fd5b611e4182611c68565b810181811067ffffffffffffffff82111715611e6057611e5f611e09565b5b80604052505050565b6000611e73611b4a565b9050611e7f8282611e38565b919050565b600067ffffffffffffffff821115611e9f57611e9e611e09565b5b611ea882611c68565b9050602081019050919050565b82818337600083830152505050565b6000611ed7611ed284611e84565b611e69565b905082815260208101848484011115611ef357611ef2611e04565b5b611efe848285611eb5565b509392505050565b600082601f830112611f1b57611f1a611dff565b5b8135611f2b848260208601611ec4565b91505092915050565b60008060408385031215611f4b57611f4a611b54565b5b6000611f5985828601611cf5565b925050602083013567ffffffffffffffff811115611f7a57611f79611b59565b5b611f8685828601611f06565b9150509250929050565b600080600060608486031215611fa957611fa8611b54565b5b6000611fb786828701611daa565b9350506020611fc886828701611daa565b9250506040611fd986828701611cf5565b9150509250925092565b600060208284031215611ff957611ff8611b54565b5b600061200784828501611daa565b91505092915050565b61201981611cd4565b82525050565b60006020820190506120346000830184612010565b92915050565b61204381611be3565b811461204e57600080fd5b50565b6000813590506120608161203a565b92915050565b6000806040838503121561207d5761207c611b54565b5b600061208b85828601611daa565b925050602061209c85828601612051565b9150509250929050565b600067ffffffffffffffff8211156120c1576120c0611e09565b5b6120ca82611c68565b9050602081019050919050565b60006120ea6120e5846120a6565b611e69565b90508281526020810184848401111561210657612105611e04565b5b612111848285611eb5565b509392505050565b600082601f83011261212e5761212d611dff565b5b813561213e8482602086016120d7565b91505092915050565b6000806000806080858703121561216157612160611b54565b5b600061216f87828801611daa565b945050602061218087828801611daa565b935050604061219187828801611cf5565b925050606085013567ffffffffffffffff8111156121b2576121b1611b59565b5b6121be87828801612119565b91505092959194509250565b600080604083850312156121e1576121e0611b54565b5b60006121ef85828601611daa565b925050602061220085828601611daa565b9150509250929050565b7f4e487b7100000000000000000000000000000000000000000000000000000000600052602260045260246000fd5b6000600282049050600182168061225157607f821691505b602082108114156122655761226461220a565b5b50919050565b60006060820190506122806000830186611d69565b61228d6020830185612010565b61229a6040830184611d69565b949350505050565b7f63726561746f722063616e206d696e7400000000000000000000000000000000600082015250565b60006122d8601083611c24565b91506122e3826122a2565b602082019050919050565b60006020820190508181036000830152612307816122cb565b9050919050565b7f4e487b7100000000000000000000000000000000000000000000000000000000600052601160045260246000fd5b600061234882611cd4565b91507fffffffffffffffffffffffffffffffffffffffffffffffffffffffffffffffff82141561237b5761237a61230e565b5b600182019050919050565b600081905092915050565b600061239c82611c19565b6123a68185612386565b93506123b6818560208601611c35565b80840191505092915050565b60006123ce8285612391565b91506123da8284612391565b91508190509392505050565b600081519050919050565b600082825260208201905092915050565b600061240d826123e6565b61241781856123f1565b9350612427818560208601611c35565b61243081611c68565b840191505092915050565b60006080820190506124506000830187611d69565b61245d6020830186611d69565b61246a6040830185612010565b818103606083015261247c8184612402565b905095945050505050565b60008151905061249681611b8a565b92915050565b6000602082840312156124b2576124b1611b54565b5b60006124c084828501612487565b91505092915050565b7f4e487b7100000000000000000000000000000000000000000000000000000000600052601260045260246000fd5b600060408201905061250d6000830185611d69565b61251a6020830184612010565b939250505056fea26469706673582212205b7a15daec6e18b1167fe463b20cbae0e032aef115f07f8496a9a5c91c75dbf864736f6c634300080a0033",
  "linkReferences": {},
  "deployedLinkReferences": {}
}