{
  "_format": "hh-sol-artifact-1",
  "contractName": "NFTMarketplace",
  "sourceName": "contracts/NFTMarketplace.sol",
  "abi": [
    {
      "inputs": [],
      "stateMutability": "nonpayable",
      "type": "constructor"
    },
    {
      "anonymous": false,
      "inputs": [
        {
          "indexed": true,
          "internalType": "uint256",
          "name": "auctionId",
          "type": "uint256"
        },
        {
          "indexed": true,
          "internalType": "address",
          "name": "seller",
          "type": "address"
        },
        {
          "indexed": true,
          "internalType": "uint256",
          "name": "tokenId",
          "type": "uint256"
        },
        {
          "indexed": false,
          "internalType": "uint256",
          "name": "reservePrice",
          "type": "uint256"
        },
        {
          "indexed": false,
          "internalType": "uint256",
          "name": "auctionEndTime",
          "type": "uint256"
        }
      ],
      "name": "AuctionCreated",
      "type": "event"
    },
    {
      "anonymous": false,
      "inputs": [
        {
          "indexed": true,
          "internalType": "uint256",
          "name": "auctionId",
          "type": "uint256"
        },
        {
          "indexed": true,
          "internalType": "address",
          "name": "winner",
          "type": "address"
        },
        {
          "indexed": false,
          "internalType": "uint256",
          "name": "highestBid",
          "type": "uint256"
        }
      ],
      "name": "AuctionEnded",
      "type": "event"
    },
    {
      "anonymous": false,
      "inputs": [
        {
          "indexed": false,
          "internalType": "uint256",
          "name": "auctionId",
          "type": "uint256"
        },
        {
          "indexed": false,
          "internalType": "address",
          "name": "bidder",
          "type": "address"
        },
        {
          "indexed": false,
          "internalType": "uint256",
          "name": "bidValue",
          "type": "uint256"
        }
      ],
      "name": "Bid",
      "type": "event"
    },
    {
      "anonymous": false,
      "inputs": [
        {
          "indexed": true,
          "internalType": "uint256",
          "name": "tokenId",
          "type": "uint256"
        },
        {
          "indexed": true,
          "internalType": "address",
          "name": "seller",
          "type": "address"
        },
        {
          "indexed": false,
          "internalType": "uint256",
          "name": "price",
          "type": "uint256"
        }
      ],
      "name": "NFTListed",
      "type": "event"
    },
    {
      "anonymous": false,
      "inputs": [
        {
          "indexed": true,
          "internalType": "uint256",
          "name": "tokenId",
          "type": "uint256"
        },
        {
          "indexed": true,
          "internalType": "address",
          "name": "seller",
          "type": "address"
        },
        {
          "indexed": true,
          "internalType": "address",
          "name": "buyer",
          "type": "address"
        },
        {
          "indexed": false,
          "internalType": "uint256",
          "name": "price",
          "type": "uint256"
        }
      ],
      "name": "NFTSold",
      "type": "event"
    },
    {
      "inputs": [
        {
          "internalType": "uint256",
          "name": "",
          "type": "uint256"
        }
      ],
      "name": "AuctionListings",
      "outputs": [
        {
          "internalType": "contract IERC721",
          "name": "nftAddress",
          "type": "address"
        },
        {
          "internalType": "address",
          "name": "seller",
          "type": "address"
        },
        {
          "internalType": "uint256",
          "name": "tokenId",
          "type": "uint256"
        },
        {
          "internalType": "uint256",
          "name": "reservePrice",
          "type": "uint256"
        },
        {
          "internalType": "uint256",
          "name": "auctionEndTime",
          "type": "uint256"
        },
        {
          "internalType": "address",
          "name": "highestBidder",
          "type": "address"
        },
        {
          "internalType": "uint256",
          "name": "highestBid",
          "type": "uint256"
        },
        {
          "internalType": "bool",
          "name": "isActive",
          "type": "bool"
        }
      ],
      "stateMutability": "view",
      "type": "function"
    },
    {
      "inputs": [
        {
          "internalType": "uint256",
          "name": "saleId",
          "type": "uint256"
        }
      ],
      "name": "buyNFT",
      "outputs": [],
      "stateMutability": "payable",
      "type": "function"
    },
    {
      "inputs": [
        {
          "internalType": "uint256",
          "name": "auctionId",
          "type": "uint256"
        }
      ],
      "name": "endAuction",
      "outputs": [],
      "stateMutability": "nonpayable",
      "type": "function"
    },
    {
      "inputs": [
        {
          "internalType": "uint256",
          "name": "auctionId",
          "type": "uint256"
        }
      ],
      "name": "getNFTAuction",
      "outputs": [
        {
          "components": [
            {
              "internalType": "contract IERC721",
              "name": "nftAddress",
              "type": "address"
            },
            {
              "internalType": "address",
              "name": "seller",
              "type": "address"
            },
            {
              "internalType": "uint256",
              "name": "tokenId",
              "type": "uint256"
            },
            {
              "internalType": "uint256",
              "name": "reservePrice",
              "type": "uint256"
            },
            {
              "internalType": "uint256",
              "name": "auctionEndTime",
              "type": "uint256"
            },
            {
              "internalType": "address",
              "name": "highestBidder",
              "type": "address"
            },
            {
              "internalType": "uint256",
              "name": "highestBid",
              "type": "uint256"
            },
            {
              "internalType": "bool",
              "name": "isActive",
              "type": "bool"
            }
          ],
          "internalType": "struct NFTMarketplace.AuctionListing",
          "name": "",
          "type": "tuple"
        }
      ],
      "stateMutability": "view",
      "type": "function"
    },
    {
      "inputs": [
        {
          "internalType": "uint256",
          "name": "saleId",
          "type": "uint256"
        }
      ],
      "name": "getNFTListing",
      "outputs": [
        {
          "components": [
            {
              "internalType": "contract IERC721",
              "name": "nftAddress",
              "type": "address"
            },
            {
              "internalType": "uint256",
              "name": "tokenId",
              "type": "uint256"
            },
            {
              "internalType": "address",
              "name": "seller",
              "type": "address"
            },
            {
              "internalType": "uint256",
              "name": "price",
              "type": "uint256"
            },
            {
              "internalType": "bool",
              "name": "isActive",
              "type": "bool"
            }
          ],
          "internalType": "struct NFTMarketplace.NFTListing",
          "name": "",
          "type": "tuple"
        }
      ],
      "stateMutability": "view",
      "type": "function"
    },
    {
      "inputs": [
        {
          "internalType": "address",
          "name": "_nftAddress",
          "type": "address"
        },
        {
          "internalType": "uint256",
          "name": "tokenId",
          "type": "uint256"
        },
        {
          "internalType": "uint256",
          "name": "reservePrice",
          "type": "uint256"
        },
        {
          "internalType": "uint256",
          "name": "auctionEndTime",
          "type": "uint256"
        }
      ],
      "name": "listForAuction",
      "outputs": [],
      "stateMutability": "nonpayable",
      "type": "function"
    },
    {
      "inputs": [
        {
          "internalType": "address",
          "name": "_nftAddress",
          "type": "address"
        },
        {
          "internalType": "uint256",
          "name": "tokenId",
          "type": "uint256"
        },
        {
          "internalType": "uint256",
          "name": "price",
          "type": "uint256"
        }
      ],
      "name": "listNFTForSale",
      "outputs": [],
      "stateMutability": "nonpayable",
      "type": "function"
    },
    {
      "inputs": [
        {
          "internalType": "uint256",
          "name": "",
          "type": "uint256"
        }
      ],
      "name": "nftListings",
      "outputs": [
        {
          "internalType": "contract IERC721",
          "name": "nftAddress",
          "type": "address"
        },
        {
          "internalType": "uint256",
          "name": "tokenId",
          "type": "uint256"
        },
        {
          "internalType": "address",
          "name": "seller",
          "type": "address"
        },
        {
          "internalType": "uint256",
          "name": "price",
          "type": "uint256"
        },
        {
          "internalType": "bool",
          "name": "isActive",
          "type": "bool"
        }
      ],
      "stateMutability": "view",
      "type": "function"
    },
    {
      "inputs": [
        {
          "internalType": "uint256",
          "name": "auctionId",
          "type": "uint256"
        }
      ],
      "name": "placeBid",
      "outputs": [],
      "stateMutability": "payable",
      "type": "function"
    },
    {
      "inputs": [
        {
          "internalType": "uint256",
          "name": "saleId",
          "type": "uint256"
        }
      ],
      "name": "unlistFromSale",
      "outputs": [],
      "stateMutability": "nonpayable",
      "type": "function"
    },
    {
      "inputs": [
        {
          "internalType": "uint256",
          "name": "auctionId",
          "type": "uint256"
        }
      ],
      "name": "withdrawAuctionNFT",
      "outputs": [],
      "stateMutability": "nonpayable",
      "type": "function"
    },
    {
      "inputs": [
        {
          "internalType": "uint256",
          "name": "saleId",
          "type": "uint256"
        }
      ],
      "name": "withdrawListedNFT",
      "outputs": [],
      "stateMutability": "nonpayable",
      "type": "function"
    }
  ],
  "bytecode": "0x608060405260016000556001805566038d7ea4c6800060035534801561002457600080fd5b5033600260006101000a81548173ffffffffffffffffffffffffffffffffffffffff021916908373ffffffffffffffffffffffffffffffffffffffff1602179055506129a7806100756000396000f3fe6080604052600436106100a75760003560e01c80637221bb01116100645780637221bb01146101d85780637c5bb03d146102015780639979ef45146102425780639f2adf7b1461025e578063b9a2de3a14610287578063bc6a2d95146102b0576100a7565b80630ea59c4b146100ac57806338a97f97146100e95780633ae6c6d6146101265780634ccd77bf1461014f57806351ed82881461017857806363afafc714610194575b600080fd5b3480156100b857600080fd5b506100d360048036038101906100ce9190611e46565b6102d9565b6040516100e09190611fa5565b60405180910390f35b3480156100f557600080fd5b50610110600480360381019061010b9190611e46565b6103e1565b60405161011d9190612062565b60405180910390f35b34801561013257600080fd5b5061014d600480360381019061014891906120aa565b610554565b005b34801561015b57600080fd5b50610176600480360381019061017191906120fd565b61088e565b005b610192600480360381019061018d9190611e46565b610c6a565b005b3480156101a057600080fd5b506101bb60048036038101906101b69190611e46565b610fe9565b6040516101cf9897969594939291906121a0565b60405180910390f35b3480156101e457600080fd5b506101ff60048036038101906101fa9190611e46565b61109e565b005b34801561020d57600080fd5b5061022860048036038101906102239190611e46565b611259565b60405161023995949392919061221e565b60405180910390f35b61025c60048036038101906102579190611e46565b6112dc565b005b34801561026a57600080fd5b5061028560048036038101906102809190611e46565b6115a6565b005b34801561029357600080fd5b506102ae60048036038101906102a99190611e46565b611819565b005b3480156102bc57600080fd5b506102d760048036038101906102d29190611e46565b611af7565b005b6102e1611d25565b600460008381526020019081526020016000206040518060a00160405290816000820160009054906101000a900473ffffffffffffffffffffffffffffffffffffffff1673ffffffffffffffffffffffffffffffffffffffff1673ffffffffffffffffffffffffffffffffffffffff168152602001600182015481526020016002820160009054906101000a900473ffffffffffffffffffffffffffffffffffffffff1673ffffffffffffffffffffffffffffffffffffffff1673ffffffffffffffffffffffffffffffffffffffff168152602001600382015481526020016004820160009054906101000a900460ff1615151515815250509050919050565b6103e9611d82565b60056000838152602001908152602001600020604051806101000160405290816000820160009054906101000a900473ffffffffffffffffffffffffffffffffffffffff1673ffffffffffffffffffffffffffffffffffffffff1673ffffffffffffffffffffffffffffffffffffffff1681526020016001820160009054906101000a900473ffffffffffffffffffffffffffffffffffffffff1673ffffffffffffffffffffffffffffffffffffffff1673ffffffffffffffffffffffffffffffffffffffff1681526020016002820154815260200160038201548152602001600482015481526020016005820160009054906101000a900473ffffffffffffffffffffffffffffffffffffffff1673ffffffffffffffffffffffffffffffffffffffff1673ffffffffffffffffffffffffffffffffffffffff168152602001600682015481526020016007820160009054906101000a900460ff1615151515815250509050919050565b60008390503373ffffffffffffffffffffffffffffffffffffffff168173ffffffffffffffffffffffffffffffffffffffff16636352211e856040518263ffffffff1660e01b81526004016105a99190612271565b602060405180830381865afa1580156105c6573d6000803e3d6000fd5b505050506040513d601f19601f820116820180604052508101906105ea91906122a1565b73ffffffffffffffffffffffffffffffffffffffff1614610640576040517f08c379a00000000000000000000000000000000000000000000000000000000081526004016106379061232b565b60405180910390fd5b6003548211610684576040517f08c379a000000000000000000000000000000000000000000000000000000000815260040161067b90612397565b60405180910390fd5b8073ffffffffffffffffffffffffffffffffffffffff166342842e0e3330866040518463ffffffff1660e01b81526004016106c1939291906123b7565b600060405180830381600087803b1580156106db57600080fd5b505af11580156106ef573d6000803e3d6000fd5b505050506040518060a001604052808273ffffffffffffffffffffffffffffffffffffffff1681526020018481526020013373ffffffffffffffffffffffffffffffffffffffff16815260200183815260200160011515815250600460008054815260200190815260200160002060008201518160000160006101000a81548173ffffffffffffffffffffffffffffffffffffffff021916908373ffffffffffffffffffffffffffffffffffffffff1602179055506020820151816001015560408201518160020160006101000a81548173ffffffffffffffffffffffffffffffffffffffff021916908373ffffffffffffffffffffffffffffffffffffffff1602179055506060820151816003015560808201518160040160006101000a81548160ff0219169083151502179055509050503373ffffffffffffffffffffffffffffffffffffffff16837f5f9c03de076f5063cd3ebcfe8ef7aa8af378e4b35a83c77ba9777e97083879a2846040516108699190612271565b60405180910390a36000808154809291906108839061241d565b919050555050505050565b60008490503373ffffffffffffffffffffffffffffffffffffffff168173ffffffffffffffffffffffffffffffffffffffff16636352211e866040518263ffffffff1660e01b81526004016108e39190612271565b602060405180830381865afa158015610900573d6000803e3d6000fd5b505050506040513d601f19601f8201168201806040525081019061092491906122a1565b73ffffffffffffffffffffffffffffffffffffffff161461097a576040517f08c379a00000000000000000000000000000000000000000000000000000000081526004016109719061232b565b60405180910390fd5b60035483116109be576040517f08c379a00000000000000000000000000000000000000000000000000000000081526004016109b590612397565b60405180910390fd5b8073ffffffffffffffffffffffffffffffffffffffff166342842e0e3330876040518463ffffffff1660e01b81526004016109fb939291906123b7565b600060405180830381600087803b158015610a1557600080fd5b505af1158015610a29573d6000803e3d6000fd5b50505050610a408242611cd790919063ffffffff16565b91506040518061010001604052808273ffffffffffffffffffffffffffffffffffffffff1681526020013373ffffffffffffffffffffffffffffffffffffffff168152602001858152602001848152602001838152602001600073ffffffffffffffffffffffffffffffffffffffff1681526020018481526020016001151581525060056000600154815260200190815260200160002060008201518160000160006101000a81548173ffffffffffffffffffffffffffffffffffffffff021916908373ffffffffffffffffffffffffffffffffffffffff16021790555060208201518160010160006101000a81548173ffffffffffffffffffffffffffffffffffffffff021916908373ffffffffffffffffffffffffffffffffffffffff16021790555060408201518160020155606082015181600301556080820151816004015560a08201518160050160006101000a81548173ffffffffffffffffffffffffffffffffffffffff021916908373ffffffffffffffffffffffffffffffffffffffff16021790555060c0820151816006015560e08201518160070160006101000a81548160ff021916908315150217905550905050833373ffffffffffffffffffffffffffffffffffffffff166001547f05f9bf100dd0ca9f37f08e0526690286d357ed7d6c5a4ac29730440b6e2dfd628686604051610c43929190612466565b60405180910390a460016000815480929190610c5e9061241d565b91905055505050505050565b60006004600083815260200190815260200160002090508060040160009054906101000a900460ff16610cd2576040517f08c379a0000000000000000000000000000000000000000000000000000000008152600401610cc9906124db565b60405180910390fd5b80600301543414610d18576040517f08c379a0000000000000000000000000000000000000000000000000000000008152600401610d0f90612547565b60405180910390fd5b8060020160009054906101000a900473ffffffffffffffffffffffffffffffffffffffff1673ffffffffffffffffffffffffffffffffffffffff163373ffffffffffffffffffffffffffffffffffffffff161415610dab576040517f08c379a0000000000000000000000000000000000000000000000000000000008152600401610da2906125b3565b60405180910390fd5b8060000160009054906101000a900473ffffffffffffffffffffffffffffffffffffffff1673ffffffffffffffffffffffffffffffffffffffff166342842e0e303384600101546040518463ffffffff1660e01b8152600401610e10939291906123b7565b600060405180830381600087803b158015610e2a57600080fd5b505af1158015610e3e573d6000803e3d6000fd5b505050506000610e5d6003548360030154611cfe90919063ffffffff16565b9050600260009054906101000a900473ffffffffffffffffffffffffffffffffffffffff1673ffffffffffffffffffffffffffffffffffffffff166108fc6003549081150290604051600060405180830381858888f19350505050158015610ec9573d6000803e3d6000fd5b508160020160009054906101000a900473ffffffffffffffffffffffffffffffffffffffff1673ffffffffffffffffffffffffffffffffffffffff166108fc829081150290604051600060405180830381858888f19350505050158015610f34573d6000803e3d6000fd5b5060008260040160006101000a81548160ff0219169083151502179055503373ffffffffffffffffffffffffffffffffffffffff168260020160009054906101000a900473ffffffffffffffffffffffffffffffffffffffff1673ffffffffffffffffffffffffffffffffffffffff1683600101547f8562eb94748e30bb0071e932744ce902b460c683474fcb3bfd567ffa16b1afb28560030154604051610fdc9190612271565b60405180910390a4505050565b60056020528060005260406000206000915090508060000160009054906101000a900473ffffffffffffffffffffffffffffffffffffffff16908060010160009054906101000a900473ffffffffffffffffffffffffffffffffffffffff16908060020154908060030154908060040154908060050160009054906101000a900473ffffffffffffffffffffffffffffffffffffffff16908060060154908060070160009054906101000a900460ff16905088565b6004600082815260200190815260200160002060040160009054906101000a900460ff16611101576040517f08c379a00000000000000000000000000000000000000000000000000000000081526004016110f8906124db565b60405180910390fd5b600260009054906101000a900473ffffffffffffffffffffffffffffffffffffffff1673ffffffffffffffffffffffffffffffffffffffff166108fc6003549081150290604051600060405180830381858888f1935050505015801561116b573d6000803e3d6000fd5b506004600082815260200190815260200160002060000160009054906101000a900473ffffffffffffffffffffffffffffffffffffffff1673ffffffffffffffffffffffffffffffffffffffff166342842e0e303360046000868152602001908152602001600020600101546040518463ffffffff1660e01b81526004016111f5939291906123b7565b600060405180830381600087803b15801561120f57600080fd5b505af1158015611223573d6000803e3d6000fd5b5050505060006004600083815260200190815260200160002060040160006101000a81548160ff02191690831515021790555050565b60046020528060005260406000206000915090508060000160009054906101000a900473ffffffffffffffffffffffffffffffffffffffff16908060010154908060020160009054906101000a900473ffffffffffffffffffffffffffffffffffffffff16908060030154908060040160009054906101000a900460ff16905085565b60056000828152602001908152602001600020600601543411611334576040517f08c379a000000000000000000000000000000000000000000000000000000000815260040161132b90612645565b60405180910390fd5b6005600082815260200190815260200160002060010160009054906101000a900473ffffffffffffffffffffffffffffffffffffffff1673ffffffffffffffffffffffffffffffffffffffff163373ffffffffffffffffffffffffffffffffffffffff1614156113d9576040517f08c379a00000000000000000000000000000000000000000000000000000000081526004016113d0906126b1565b60405180910390fd5b80600154101561141e576040517f08c379a00000000000000000000000000000000000000000000000000000000081526004016114159061271d565b60405180910390fd5b6005600082815260200190815260200160002060050160009054906101000a900473ffffffffffffffffffffffffffffffffffffffff1673ffffffffffffffffffffffffffffffffffffffff166108fc60056000848152602001908152602001600020600601549081150290604051600060405180830381858888f193505050501580156114b0573d6000803e3d6000fd5b503073ffffffffffffffffffffffffffffffffffffffff166108fc349081150290604051600060405180830381858888f193505050501580156114f7573d6000803e3d6000fd5b50346005600083815260200190815260200160002060060181905550336005600083815260200190815260200160002060050160006101000a81548173ffffffffffffffffffffffffffffffffffffffff021916908373ffffffffffffffffffffffffffffffffffffffff1602179055507fdcd726e11f8b5e160f00290f0fe3a1abb547474e53a8e7a8f49a85e7b1ca319981333460405161159b9392919061273d565b60405180910390a150565b600260009054906101000a900473ffffffffffffffffffffffffffffffffffffffff1673ffffffffffffffffffffffffffffffffffffffff163373ffffffffffffffffffffffffffffffffffffffff1614611636576040517f08c379a000000000000000000000000000000000000000000000000000000000815260040161162d906127c0565b60405180910390fd5b6005600082815260200190815260200160002060070160009054906101000a900460ff16611699576040517f08c379a0000000000000000000000000000000000000000000000000000000008152600401611690906124db565b60405180910390fd5b6005600082815260200190815260200160002060050160009054906101000a900473ffffffffffffffffffffffffffffffffffffffff1673ffffffffffffffffffffffffffffffffffffffff166108fc60056000848152602001908152602001600020600601549081150290604051600060405180830381858888f1935050505015801561172b573d6000803e3d6000fd5b506005600082815260200190815260200160002060000160009054906101000a900473ffffffffffffffffffffffffffffffffffffffff1673ffffffffffffffffffffffffffffffffffffffff166342842e0e303360056000868152602001908152602001600020600201546040518463ffffffff1660e01b81526004016117b5939291906123b7565b600060405180830381600087803b1580156117cf57600080fd5b505af11580156117e3573d6000803e3d6000fd5b5050505060006005600083815260200190815260200160002060070160006101000a81548160ff02191690831515021790555050565b6005600082815260200190815260200160002060040154421015611872576040517f08c379a00000000000000000000000000000000000000000000000000000000081526004016118699061282c565b60405180910390fd5b600015156005600083815260200190815260200160002060070160009054906101000a900460ff161515146118dc576040517f08c379a00000000000000000000000000000000000000000000000000000000081526004016118d390612898565b60405180910390fd5b60006005600083815260200190815260200160002060070160006101000a81548160ff0219169083151502179055506005600082815260200190815260200160002060010160009054906101000a900473ffffffffffffffffffffffffffffffffffffffff1673ffffffffffffffffffffffffffffffffffffffff166108fc60056000848152602001908152602001600020600601549081150290604051600060405180830381858888f1935050505015801561199d573d6000803e3d6000fd5b506005600082815260200190815260200160002060000160009054906101000a900473ffffffffffffffffffffffffffffffffffffffff1673ffffffffffffffffffffffffffffffffffffffff166342842e0e303360056000868152602001908152602001600020600201546040518463ffffffff1660e01b8152600401611a27939291906123b7565b600060405180830381600087803b158015611a4157600080fd5b505af1158015611a55573d6000803e3d6000fd5b505050506005600082815260200190815260200160002060050160009054906101000a900473ffffffffffffffffffffffffffffffffffffffff1673ffffffffffffffffffffffffffffffffffffffff16817fd2aa34a4fdbbc6dff6a3e56f46e0f3ae2a31d7785ff3487aa5c95c642acea5016005600085815260200190815260200160002060060154604051611aec9190612271565b60405180910390a350565b600260009054906101000a900473ffffffffffffffffffffffffffffffffffffffff1673ffffffffffffffffffffffffffffffffffffffff163373ffffffffffffffffffffffffffffffffffffffff1614611b87576040517f08c379a0000000000000000000000000000000000000000000000000000000008152600401611b7e906127c0565b60405180910390fd5b6004600082815260200190815260200160002060040160009054906101000a900460ff16611bea576040517f08c379a0000000000000000000000000000000000000000000000000000000008152600401611be1906124db565b60405180910390fd5b6004600082815260200190815260200160002060000160009054906101000a900473ffffffffffffffffffffffffffffffffffffffff1673ffffffffffffffffffffffffffffffffffffffff166342842e0e303360046000868152602001908152602001600020600101546040518463ffffffff1660e01b8152600401611c73939291906123b7565b600060405180830381600087803b158015611c8d57600080fd5b505af1158015611ca1573d6000803e3d6000fd5b5050505060006004600083815260200190815260200160002060040160006101000a81548160ff02191690831515021790555050565b60008183611ce591906128b8565b905082811015611cf857611cf761290e565b5b92915050565b600082821115611d1157611d1061290e565b5b8183611d1d919061293d565b905092915050565b6040518060a00160405280600073ffffffffffffffffffffffffffffffffffffffff16815260200160008152602001600073ffffffffffffffffffffffffffffffffffffffff168152602001600081526020016000151581525090565b604051806101000160405280600073ffffffffffffffffffffffffffffffffffffffff168152602001600073ffffffffffffffffffffffffffffffffffffffff168152602001600081526020016000815260200160008152602001600073ffffffffffffffffffffffffffffffffffffffff168152602001600081526020016000151581525090565b600080fd5b6000819050919050565b611e2381611e10565b8114611e2e57600080fd5b50565b600081359050611e4081611e1a565b92915050565b600060208284031215611e5c57611e5b611e0b565b5b6000611e6a84828501611e31565b91505092915050565b600073ffffffffffffffffffffffffffffffffffffffff82169050919050565b6000819050919050565b6000611eb8611eb3611eae84611e73565b611e93565b611e73565b9050919050565b6000611eca82611e9d565b9050919050565b6000611edc82611ebf565b9050919050565b611eec81611ed1565b82525050565b611efb81611e10565b82525050565b6000611f0c82611e73565b9050919050565b611f1c81611f01565b82525050565b60008115159050919050565b611f3781611f22565b82525050565b60a082016000820151611f536000850182611ee3565b506020820151611f666020850182611ef2565b506040820151611f796040850182611f13565b506060820151611f8c6060850182611ef2565b506080820151611f9f6080850182611f2e565b50505050565b600060a082019050611fba6000830184611f3d565b92915050565b61010082016000820151611fd76000850182611ee3565b506020820151611fea6020850182611f13565b506040820151611ffd6040850182611ef2565b5060608201516120106060850182611ef2565b5060808201516120236080850182611ef2565b5060a082015161203660a0850182611f13565b5060c082015161204960c0850182611ef2565b5060e082015161205c60e0850182611f2e565b50505050565b6000610100820190506120786000830184611fc0565b92915050565b61208781611f01565b811461209257600080fd5b50565b6000813590506120a48161207e565b92915050565b6000806000606084860312156120c3576120c2611e0b565b5b60006120d186828701612095565b93505060206120e286828701611e31565b92505060406120f386828701611e31565b9150509250925092565b6000806000806080858703121561211757612116611e0b565b5b600061212587828801612095565b945050602061213687828801611e31565b935050604061214787828801611e31565b925050606061215887828801611e31565b91505092959194509250565b61216d81611ed1565b82525050565b61217c81611f01565b82525050565b61218b81611e10565b82525050565b61219a81611f22565b82525050565b6000610100820190506121b6600083018b612164565b6121c3602083018a612173565b6121d06040830189612182565b6121dd6060830188612182565b6121ea6080830187612182565b6121f760a0830186612173565b61220460c0830185612182565b61221160e0830184612191565b9998505050505050505050565b600060a0820190506122336000830188612164565b6122406020830187612182565b61224d6040830186612173565b61225a6060830185612182565b6122676080830184612191565b9695505050505050565b60006020820190506122866000830184612182565b92915050565b60008151905061229b8161207e565b92915050565b6000602082840312156122b7576122b6611e0b565b5b60006122c58482850161228c565b91505092915050565b600082825260208201905092915050565b7f596f7520646f6e2774206f776e2074686973204e465400000000000000000000600082015250565b60006123156016836122ce565b9150612320826122df565b602082019050919050565b6000602082019050818103600083015261234481612308565b9050919050565b7f70726963652067726561746572207468616e20302e3030303165746865720000600082015250565b6000612381601e836122ce565b915061238c8261234b565b602082019050919050565b600060208201905081810360008301526123b081612374565b9050919050565b60006060820190506123cc6000830186612173565b6123d96020830185612173565b6123e66040830184612182565b949350505050565b7f4e487b7100000000000000000000000000000000000000000000000000000000600052601160045260246000fd5b600061242882611e10565b91507fffffffffffffffffffffffffffffffffffffffffffffffffffffffffffffffff82141561245b5761245a6123ee565b5b600182019050919050565b600060408201905061247b6000830185612182565b6124886020830184612182565b9392505050565b7f4e4654206973206e6f74206c6973746564000000000000000000000000000000600082015250565b60006124c56011836122ce565b91506124d08261248f565b602082019050919050565b600060208201905081810360008301526124f4816124b8565b9050919050565b7f496e73756666696369656e742066756e64730000000000000000000000000000600082015250565b60006125316012836122ce565b915061253c826124fb565b602082019050919050565b6000602082019050818103600083015261256081612524565b9050919050565b7f73656c6c65722063616e6e6f7420627579000000000000000000000000000000600082015250565b600061259d6011836122ce565b91506125a882612567565b602082019050919050565b600060208201905081810360008301526125cc81612590565b9050919050565b7f426964206d75737420626520686967686572207468616e20746865206375727260008201527f656e742068696768657374206269640000000000000000000000000000000000602082015250565b600061262f602f836122ce565b915061263a826125d3565b604082019050919050565b6000602082019050818103600083015261265e81612622565b9050919050565b7f53656c6c65722063616e6e6f7420626964000000000000000000000000000000600082015250565b600061269b6011836122ce565b91506126a682612665565b602082019050919050565b600060208201905081810360008301526126ca8161268e565b9050919050565b7f696e76616c69642061756374696f6e2049440000000000000000000000000000600082015250565b60006127076012836122ce565b9150612712826126d1565b602082019050919050565b60006020820190508181036000830152612736816126fa565b9050919050565b60006060820190506127526000830186612182565b61275f6020830185612173565b61276c6040830184612182565b949350505050565b7f6d61726b6574206f776e65722063616e2063616c6c0000000000000000000000600082015250565b60006127aa6015836122ce565b91506127b582612774565b602082019050919050565b600060208201905081810360008301526127d98161279d565b9050919050565b7f41756374696f6e20686173206e6f7420656e6465642079657400000000000000600082015250565b60006128166019836122ce565b9150612821826127e0565b602082019050919050565b6000602082019050818103600083015261284581612809565b9050919050565b7f6e6f74206c69737420666f722061756374696f6e000000000000000000000000600082015250565b60006128826014836122ce565b915061288d8261284c565b602082019050919050565b600060208201905081810360008301526128b181612875565b9050919050565b60006128c382611e10565b91506128ce83611e10565b9250827fffffffffffffffffffffffffffffffffffffffffffffffffffffffffffffffff03821115612903576129026123ee565b5b828201905092915050565b7f4e487b7100000000000000000000000000000000000000000000000000000000600052600160045260246000fd5b600061294882611e10565b915061295383611e10565b925082821015612966576129656123ee565b5b82820390509291505056fea2646970667358221220ff6ed9381e091b7cd115b70cb0645fa664a4159d1ac8ae8f9debc96285ef829c64736f6c634300080a0033",
  "linkReferences": {},
  "deployedLinkReferences": {}
}